{
  "contractName": "NewCaterAuction",
  "abi": [
    {
      "constant": true,
      "inputs": [],
      "name": "creator",
      "outputs": [
        {
          "name": "",
          "type": "address"
        }
      ],
      "payable": false,
      "stateMutability": "view",
      "type": "function"
    },
    {
      "constant": true,
      "inputs": [],
      "name": "biddingEndTime",
      "outputs": [
        {
          "name": "",
          "type": "uint256"
        }
      ],
      "payable": false,
      "stateMutability": "view",
      "type": "function"
    },
    {
      "constant": true,
      "inputs": [],
      "name": "biddingStartTime",
      "outputs": [
        {
          "name": "",
          "type": "uint256"
        }
      ],
      "payable": false,
      "stateMutability": "view",
      "type": "function"
    },
    {
      "constant": true,
      "inputs": [],
      "name": "bidRecipient",
      "outputs": [
        {
          "name": "",
          "type": "address"
        }
      ],
      "payable": false,
      "stateMutability": "view",
      "type": "function"
    },
    {
      "constant": true,
      "inputs": [],
      "name": "totalBid",
      "outputs": [
        {
          "name": "",
          "type": "uint256"
        }
      ],
      "payable": false,
      "stateMutability": "view",
      "type": "function"
    },
    {
      "constant": true,
      "inputs": [
        {
          "name": "",
          "type": "address"
        }
      ],
      "name": "biddingAmount",
      "outputs": [
        {
          "name": "",
          "type": "uint256"
        }
      ],
      "payable": false,
      "stateMutability": "view",
      "type": "function"
    },
    {
      "constant": true,
      "inputs": [],
      "name": "highest",
      "outputs": [
        {
          "name": "",
          "type": "uint256"
        }
      ],
      "payable": false,
      "stateMutability": "view",
      "type": "function"
    },
    {
      "constant": true,
      "inputs": [],
      "name": "state",
      "outputs": [
        {
          "name": "",
          "type": "uint8"
        }
      ],
      "payable": false,
      "stateMutability": "view",
      "type": "function"
    },
    {
      "constant": true,
      "inputs": [],
      "name": "highestAddress",
      "outputs": [
        {
          "name": "",
          "type": "address"
        }
      ],
      "payable": false,
      "stateMutability": "view",
      "type": "function"
    },
    {
      "constant": true,
      "inputs": [],
      "name": "currentBalance",
      "outputs": [
        {
          "name": "",
          "type": "uint256"
        }
      ],
      "payable": false,
      "stateMutability": "view",
      "type": "function"
    },
    {
      "constant": true,
      "inputs": [],
      "name": "minPrice",
      "outputs": [
        {
          "name": "",
          "type": "uint256"
        }
      ],
      "payable": false,
      "stateMutability": "view",
      "type": "function"
    },
    {
      "constant": true,
      "inputs": [
        {
          "name": "",
          "type": "uint256"
        }
      ],
      "name": "biddingAddress",
      "outputs": [
        {
          "name": "",
          "type": "address"
        }
      ],
      "payable": false,
      "stateMutability": "view",
      "type": "function"
    },
    {
      "constant": true,
      "inputs": [],
      "name": "campaignUrl",
      "outputs": [
        {
          "name": "",
          "type": "string"
        }
      ],
      "payable": false,
      "stateMutability": "view",
      "type": "function"
    },
    {
      "constant": true,
      "inputs": [],
      "name": "stepPrice",
      "outputs": [
        {
          "name": "",
          "type": "uint256"
        }
      ],
      "payable": false,
      "stateMutability": "view",
      "type": "function"
    },
    {
      "inputs": [
        {
          "name": "_bidRecipient",
          "type": "address"
        },
        {
          "name": "_minPrice",
          "type": "uint256"
        },
        {
          "name": "_campaignUrl",
          "type": "string"
        },
        {
          "name": "_biddingStartTime",
          "type": "uint256"
        },
        {
          "name": "_biddingEndTime",
          "type": "uint256"
        },
        {
          "name": "_stepPrice",
          "type": "uint256"
        }
      ],
      "payable": false,
      "stateMutability": "nonpayable",
      "type": "constructor"
    },
    {
      "payable": true,
      "stateMutability": "payable",
      "type": "fallback"
    },
    {
      "anonymous": false,
      "inputs": [
        {
          "indexed": false,
          "name": "addr",
          "type": "address"
        },
        {
          "indexed": false,
          "name": "amount",
          "type": "uint256"
        },
        {
          "indexed": false,
          "name": "currentTotal",
          "type": "uint256"
        }
      ],
      "name": "LogFundingReceived",
      "type": "event"
    },
    {
      "anonymous": false,
      "inputs": [
        {
          "indexed": false,
          "name": "winnerAddress",
          "type": "address"
        }
      ],
      "name": "LogWinnerPaid",
      "type": "event"
    },
    {
      "anonymous": false,
      "inputs": [
        {
          "indexed": false,
          "name": "creator",
          "type": "address"
        },
        {
          "indexed": false,
          "name": "bidRecipient",
          "type": "address"
        },
        {
          "indexed": false,
          "name": "minPrice",
          "type": "uint256"
        },
        {
          "indexed": false,
          "name": "campaignUrl",
          "type": "string"
        },
        {
          "indexed": false,
          "name": "biddingStartTime",
          "type": "uint256"
        },
        {
          "indexed": false,
          "name": "biddingEndTime",
          "type": "uint256"
        },
        {
          "indexed": false,
          "name": "stepPrice",
          "type": "uint256"
        }
      ],
      "name": "LogAuctionInitialized",
      "type": "event"
    },
    {
      "anonymous": false,
      "inputs": [
        {
          "indexed": false,
          "name": "highestAddress",
          "type": "address"
        },
        {
          "indexed": false,
          "name": "highest",
          "type": "uint256"
        }
      ],
      "name": "AuctionClosed",
      "type": "event"
    },
    {
      "anonymous": false,
      "inputs": [
        {
          "indexed": false,
          "name": "addr",
          "type": "address"
        },
        {
          "indexed": false,
          "name": "amount",
          "type": "uint256"
        }
      ],
      "name": "AuctionBid",
      "type": "event"
    },
    {
      "constant": false,
      "inputs": [
        {
          "name": "_contributor",
          "type": "address"
        },
        {
          "name": "_value",
          "type": "uint256"
        }
      ],
      "name": "bid",
      "outputs": [
        {
          "name": "success",
          "type": "bool"
        }
      ],
      "payable": false,
      "stateMutability": "nonpayable",
      "type": "function"
    },
    {
      "constant": false,
      "inputs": [],
      "name": "closeAuction",
      "outputs": [],
      "payable": false,
      "stateMutability": "nonpayable",
      "type": "function"
    },
    {
      "constant": false,
      "inputs": [],
      "name": "withdraw",
      "outputs": [
        {
          "name": "",
          "type": "bool"
        }
      ],
      "payable": false,
      "stateMutability": "nonpayable",
      "type": "function"
    },
    {
      "constant": true,
      "inputs": [],
      "name": "bidCount",
      "outputs": [
        {
          "name": "length",
          "type": "uint256"
        }
      ],
      "payable": false,
      "stateMutability": "view",
      "type": "function"
    }
  ],
  "bytecode": "0x608060405260008060006101000a81548160ff021916908360018111156200002357fe5b02179055506000600355600060045560006005556000600755600060085560006009556000600a553480156200005857600080fd5b50604051620017943803806200179483398101806040528101908080519060200190929190805190602001909291908051820192919060200180519060200190929190805190602001909291908051906020019092919050505033600060016101000a81548173ffffffffffffffffffffffffffffffffffffffff021916908373ffffffffffffffffffffffffffffffffffffffff16021790555085600260006101000a81548173ffffffffffffffffffffffffffffffffffffffff021916908373ffffffffffffffffffffffffffffffffffffffff160217905550846004819055508060058190555083600690805190602001906200015a92919062000317565b508260098190555081600a81905550600060088190555060006003819055507fc32db66fff78ca0d838c5c2a9e07d81a4c14d54dd1e54f2b2d1bfcdea8b8f109600060019054906101000a900473ffffffffffffffffffffffffffffffffffffffff16600260009054906101000a900473ffffffffffffffffffffffffffffffffffffffff166004546006600954600a54600554604051808873ffffffffffffffffffffffffffffffffffffffff1673ffffffffffffffffffffffffffffffffffffffff1681526020018773ffffffffffffffffffffffffffffffffffffffff1673ffffffffffffffffffffffffffffffffffffffff16815260200186815260200180602001858152602001848152602001838152602001828103825286818154600181600116156101000203166002900481526020019150805460018160011615610100020316600290048015620002f75780601f10620002cb57610100808354040283529160200191620002f7565b820191906000526020600020905b815481529060010190602001808311620002d957829003601f168201915b50509850505050505050505060405180910390a1505050505050620003c6565b828054600181600116156101000203166002900490600052602060002090601f016020900481019282601f106200035a57805160ff19168380011785556200038b565b828001600101855582156200038b579182015b828111156200038a5782518255916020019190600101906200036d565b5b5090506200039a91906200039e565b5090565b620003c391905b80821115620003bf576000816000905550600101620003a5565b5090565b90565b6113be80620003d66000396000f3006080604052600436106100fc576000357c0100000000000000000000000000000000000000000000000000000000900463ffffffff16806302d05d3f146101095780631022eccb14610160578063378252f21461018b5780633ccfd60b146101a2578063553fc574146101d1578063586ba121146101fc57806359d667a5146102535780638a9e8671146102b8578063a05d48e3146102e3578063b40a56271461033a578063b668e05d14610365578063c19d93fb14610390578063c75f590f146103c9578063ce845d1d14610420578063e45be8eb1461044b578063ee9f063314610476578063fa4f5511146104e3578063fa5ba0f914610573575b610106333461059e565b50005b34801561011557600080fd5b5061011e61093b565b604051808273ffffffffffffffffffffffffffffffffffffffff1673ffffffffffffffffffffffffffffffffffffffff16815260200191505060405180910390f35b34801561016c57600080fd5b50610175610961565b6040518082815260200191505060405180910390f35b34801561019757600080fd5b506101a0610967565b005b3480156101ae57600080fd5b506101b7610e26565b604051808215151515815260200191505060405180910390f35b3480156101dd57600080fd5b506101e6611186565b6040518082815260200191505060405180910390f35b34801561020857600080fd5b5061021161118c565b604051808273ffffffffffffffffffffffffffffffffffffffff1673ffffffffffffffffffffffffffffffffffffffff16815260200191505060405180910390f35b34801561025f57600080fd5b5061029e600480360381019080803573ffffffffffffffffffffffffffffffffffffffff1690602001909291908035906020019092919050505061059e565b604051808215151515815260200191505060405180910390f35b3480156102c457600080fd5b506102cd6111b2565b6040518082815260200191505060405180910390f35b3480156102ef57600080fd5b50610324600480360381019080803573ffffffffffffffffffffffffffffffffffffffff1690602001909291905050506111b8565b6040518082815260200191505060405180910390f35b34801561034657600080fd5b5061034f6111d0565b6040518082815260200191505060405180910390f35b34801561037157600080fd5b5061037a6111dd565b6040518082815260200191505060405180910390f35b34801561039c57600080fd5b506103a56111e3565b604051808260018111156103b557fe5b60ff16815260200191505060405180910390f35b3480156103d557600080fd5b506103de6111f5565b604051808273ffffffffffffffffffffffffffffffffffffffff1673ffffffffffffffffffffffffffffffffffffffff16815260200191505060405180910390f35b34801561042c57600080fd5b5061043561121b565b6040518082815260200191505060405180910390f35b34801561045757600080fd5b50610460611221565b6040518082815260200191505060405180910390f35b34801561048257600080fd5b506104a160048036038101908080359060200190929190505050611227565b604051808273ffffffffffffffffffffffffffffffffffffffff1673ffffffffffffffffffffffffffffffffffffffff16815260200191505060405180910390f35b3480156104ef57600080fd5b506104f8611265565b6040518080602001828103825283818151815260200191508051906020019080838360005b8381101561053857808201518184015260208101905061051d565b50505050905090810190601f1680156105655780820380516001836020036101000a031916815260200191505b509250505060405180910390f35b34801561057f57600080fd5b50610588611303565b6040518082815260200191505060405180910390f35b60008060006001808111156105af57fe5b6000809054906101000a900460ff1660018111156105c957fe5b141515156105d657600080fd5b6000841115156105e557600080fd5b60055484101515156105f657600080fd5b6000600954148061060957506009544210155b151561061457600080fd5b6000600a5414806106275750600a544211155b151561063257600080fd5b600c60008673ffffffffffffffffffffffffffffffffffffffff1673ffffffffffffffffffffffffffffffffffffffff16815260200190815260200160002054915083905060035461068d838361130990919063ffffffff16565b111515610702576040517f08c379a000000000000000000000000000000000000000000000000000000000815260040180806020018281038252600f8152602001807f4e6f74206869676820656e6f756768000000000000000000000000000000000081525060200191505060405180910390fd5b7f90795e8cf6dae5c2c557ee6fdc60357c5c4a9eacda8d456049a634a19c93f9ee8585604051808373ffffffffffffffffffffffffffffffffffffffff1673ffffffffffffffffffffffffffffffffffffffff1681526020018281526020019250505060405180910390a16000600c60008773ffffffffffffffffffffffffffffffffffffffff1673ffffffffffffffffffffffffffffffffffffffff16815260200190815260200160002054141561081c57600b8590806001815401808255809150509060018203906000526020600020016000909192909190916101000a81548173ffffffffffffffffffffffffffffffffffffffff021916908373ffffffffffffffffffffffffffffffffffffffff160217905550505b61082f828261130990919063ffffffff16565b600c60008773ffffffffffffffffffffffffffffffffffffffff1673ffffffffffffffffffffffffffffffffffffffff16815260200190815260200160002081905550600c60008673ffffffffffffffffffffffffffffffffffffffff1673ffffffffffffffffffffffffffffffffffffffff1681526020019081526020016000205460038190555084600160006101000a81548173ffffffffffffffffffffffffffffffffffffffff021916908373ffffffffffffffffffffffffffffffffffffffff16021790555061090e8160075461130990919063ffffffff16565b6007819055506109298160085461130990919063ffffffff16565b60088190555060019250505092915050565b600060019054906101000a900473ffffffffffffffffffffffffffffffffffffffff1681565b600a5481565b600080600060019054906101000a900473ffffffffffffffffffffffffffffffffffffffff1673ffffffffffffffffffffffffffffffffffffffff163373ffffffffffffffffffffffffffffffffffffffff161415156109c657600080fd5b600060019054906101000a900473ffffffffffffffffffffffffffffffffffffffff1673ffffffffffffffffffffffffffffffffffffffff163373ffffffffffffffffffffffffffffffffffffffff16141515610a2257600080fd5b600a544210151515610a9c576040517f08c379a00000000000000000000000000000000000000000000000000000000081526004018080602001828103825260188152602001807f41756374696f6e206e6f742074696d652075702079657421000000000000000081525060200191505060405180910390fd5b600180811115610aa857fe5b6000809054906101000a900460ff166001811115610ac257fe5b14151515610b38576040517f08c379a000000000000000000000000000000000000000000000000000000000815260040180806020018281038252600e8152602001807f41756374696f6e20436c6f73656400000000000000000000000000000000000081525060200191505060405180910390fd5b60016000806101000a81548160ff02191690836001811115610b5657fe5b0217905550600091505b600b80549050821015610d9357600160009054906101000a900473ffffffffffffffffffffffffffffffffffffffff1673ffffffffffffffffffffffffffffffffffffffff16600b83815481101515610bb557fe5b9060005260206000200160009054906101000a900473ffffffffffffffffffffffffffffffffffffffff1673ffffffffffffffffffffffffffffffffffffffff161415610c0157610d86565b600c6000600b84815481101515610c1457fe5b9060005260206000200160009054906101000a900473ffffffffffffffffffffffffffffffffffffffff1673ffffffffffffffffffffffffffffffffffffffff1673ffffffffffffffffffffffffffffffffffffffff168152602001908152602001600020549050600081141515610d8557600b82815481101515610c9557fe5b9060005260206000200160009054906101000a900473ffffffffffffffffffffffffffffffffffffffff1673ffffffffffffffffffffffffffffffffffffffff166108fc829081150290604051600060405180830381858888f19350505050158015610d05573d6000803e3d6000fd5b506000600c6000600b85815481101515610d1b57fe5b9060005260206000200160009054906101000a900473ffffffffffffffffffffffffffffffffffffffff1673ffffffffffffffffffffffffffffffffffffffff1673ffffffffffffffffffffffffffffffffffffffff168152602001908152602001600020819055505b5b8180600101925050610b60565b7f1d78ca6377547e2f5434a04066a4dcac7670fd77e146b686b06bf8fbc06fb435600160009054906101000a900473ffffffffffffffffffffffffffffffffffffffff16600354604051808373ffffffffffffffffffffffffffffffffffffffff1673ffffffffffffffffffffffffffffffffffffffff1681526020018281526020019250505060405180910390a15050565b60008060019054906101000a900473ffffffffffffffffffffffffffffffffffffffff1673ffffffffffffffffffffffffffffffffffffffff163373ffffffffffffffffffffffffffffffffffffffff16141515610e8357600080fd5b600060019054906101000a900473ffffffffffffffffffffffffffffffffffffffff1673ffffffffffffffffffffffffffffffffffffffff163373ffffffffffffffffffffffffffffffffffffffff16141515610f48576040517f08c379a00000000000000000000000000000000000000000000000000000000081526004018080602001828103825260198152602001807f4f6e6c792063726561746f722063616e2077697468647261770000000000000081525060200191505060405180910390fd5b600a544210151515610fc2576040517f08c379a00000000000000000000000000000000000000000000000000000000081526004018080602001828103825260188152602001807f41756374696f6e206e6f742074696d652075702079657421000000000000000081525060200191505060405180910390fd5b600180811115610fce57fe5b6000809054906101000a900460ff166001811115610fe857fe5b14151561105d576040517f08c379a00000000000000000000000000000000000000000000000000000000081526004018080602001828103825260178152602001807f41756374696f6e206e6f7420636c6f736564207965742100000000000000000081525060200191505060405180910390fd5b600260009054906101000a900473ffffffffffffffffffffffffffffffffffffffff1673ffffffffffffffffffffffffffffffffffffffff166108fc6110c2605f6110b4606460035461132a90919063ffffffff16565b61136890919063ffffffff16565b9081150290604051600060405180830381858888f193505050501580156110ed573d6000803e3d6000fd5b50600060019054906101000a900473ffffffffffffffffffffffffffffffffffffffff1673ffffffffffffffffffffffffffffffffffffffff166108fc6111536005611145606460035461132a90919063ffffffff16565b61136890919063ffffffff16565b9081150290604051600060405180830381858888f1935050505015801561117e573d6000803e3d6000fd5b506001905090565b60095481565b600260009054906101000a900473ffffffffffffffffffffffffffffffffffffffff1681565b60075481565b600c6020528060005260406000206000915090505481565b6000600b80549050905090565b60035481565b6000809054906101000a900460ff1681565b600160009054906101000a900473ffffffffffffffffffffffffffffffffffffffff1681565b60085481565b60045481565b600b8181548110151561123657fe5b906000526020600020016000915054906101000a900473ffffffffffffffffffffffffffffffffffffffff1681565b60068054600181600116156101000203166002900480601f0160208091040260200160405190810160405280929190818152602001828054600181600116156101000203166002900480156112fb5780601f106112d0576101008083540402835291602001916112fb565b820191906000526020600020905b8154815290600101906020018083116112de57829003601f168201915b505050505081565b60055481565b600080828401905083811015151561132057600080fd5b8091505092915050565b600080600084141561133f5760009150611361565b828402905082848281151561135057fe5b0414151561135d57600080fd5b8091505b5092915050565b60008060008311151561137a57600080fd5b828481151561138557fe5b04905080915050929150505600a165627a7a72305820b775d7ac8e4f1a0e88f2e3879824b2bfcf97e0613da9e7ab64ac268da40ecdb20029",
  "source": "pragma solidity ^0.4.23;\r\n\r\n/**\r\n * @title SafeMath\r\n * @dev Math operations with safety checks that revert on error\r\n */\r\nlibrary SafeMath {\r\n\r\n    /**\r\n    * @dev Multiplies two numbers, reverts on overflow.\r\n    */\r\n    function mul(uint256 a, uint256 b) internal pure returns (uint256) {\r\n        // Gas optimization: this is cheaper than requiring 'a' not being zero, but the\r\n        // benefit is lost if 'b' is also tested.\r\n        // See: https://github.com/OpenZeppelin/openzeppelin-solidity/pull/522\r\n        if (a == 0) {\r\n            return 0;\r\n        }\r\n\r\n        uint256 c = a * b;\r\n        require(c / a == b);\r\n\r\n        return c;\r\n    }\r\n\r\n    /**\r\n    * @dev Integer division of two numbers truncating the quotient, reverts on division by zero.\r\n    */\r\n    function div(uint256 a, uint256 b) internal pure returns (uint256) {\r\n        require(b > 0); // Solidity only automatically asserts when dividing by 0\r\n        uint256 c = a / b;\r\n        // assert(a == b * c + a % b); // There is no case in which this doesn't hold\r\n\r\n        return c;\r\n    }\r\n\r\n    /**\r\n    * @dev Subtracts two numbers, reverts on overflow (i.e. if subtrahend is greater than minuend).\r\n    */\r\n    function sub(uint256 a, uint256 b) internal pure returns (uint256) {\r\n        require(b <= a);\r\n        uint256 c = a - b;\r\n\r\n        return c;\r\n    }\r\n\r\n    /**\r\n    * @dev Adds two numbers, reverts on overflow.\r\n    */\r\n    function add(uint256 a, uint256 b) internal pure returns (uint256) {\r\n        uint256 c = a + b;\r\n        require(c >= a);\r\n\r\n        return c;\r\n    }\r\n\r\n    /**\r\n    * @dev Divides two numbers and returns the remainder (unsigned integer modulo),\r\n    * reverts when dividing by zero.\r\n    */\r\n    function mod(uint256 a, uint256 b) internal pure returns (uint256) {\r\n        require(b != 0);\r\n        return a % b;\r\n    }\r\n}\r\n\r\ncontract NewCaterAuction {\r\n    using SafeMath for uint256;\r\n    // campaign states\r\n    enum State {\r\n        Running,\r\n        Closed\r\n    }\r\n\r\n    State public state = State.Running;\r\n\r\n    address public creator;\r\n    address public highestAddress;\r\n    address public bidRecipient;\r\n    uint256 public highest = 0;\r\n    uint256 public minPrice = 0;\r\n    uint256 public stepPrice = 0;\r\n    string public campaignUrl;\r\n\r\n    uint256 public totalBid = 0;\r\n    uint256 public currentBalance = 0;\r\n\r\n    uint256 public biddingStartTime = 0;\r\n    uint256 public biddingEndTime = 0;\r\n\r\n    address[] public biddingAddress;\r\n    mapping(address => uint256) public biddingAmount;\r\n\r\n    event LogFundingReceived(address addr, uint256 amount, uint256 currentTotal);\r\n    event LogWinnerPaid(address winnerAddress);\r\n    event LogAuctionInitialized(address creator, address bidRecipient, uint256 minPrice, string campaignUrl, uint256 biddingStartTime, uint256 biddingEndTime, uint stepPrice);\r\n    event AuctionClosed(address highestAddress, uint highest);\r\n    event AuctionBid(address addr, uint256 amount);\r\n\r\n    modifier inState(State _state) {\r\n        require(state == _state);\r\n        _;\r\n    }\r\n\r\n    modifier isCreator() {\r\n        require(msg.sender == creator);\r\n        _;\r\n    }\r\n\r\n    constructor(address _bidRecipient, uint256 _minPrice, string _campaignUrl, uint256 _biddingStartTime, uint256 _biddingEndTime, uint256 _stepPrice) public {\r\n        creator = msg.sender;\r\n        bidRecipient = _bidRecipient;\r\n        minPrice = _minPrice;\r\n        stepPrice = _stepPrice;\r\n        campaignUrl = _campaignUrl;\r\n        biddingStartTime = _biddingStartTime;\r\n        biddingEndTime = _biddingEndTime;\r\n        currentBalance = 0;\r\n        highest = 0;\r\n        emit LogAuctionInitialized(creator, bidRecipient, minPrice, campaignUrl, biddingStartTime, biddingEndTime, stepPrice);\r\n    }\r\n\r\n    function() public payable {\r\n        bid(msg.sender, msg.value);\r\n    }\r\n\r\n    function bid(address _contributor, uint256 _value) public returns (bool success) {\r\n        require(state != State.Closed);\r\n        require(_value > 0);\r\n        require(_value >= stepPrice);\r\n        require(biddingStartTime == 0 || now >= biddingStartTime);\r\n        require(biddingEndTime == 0 || now <= biddingEndTime);\r\n\r\n        uint256 prevAmt = biddingAmount[_contributor];\r\n        uint256 biddingAmt = _value;\r\n\r\n        require(biddingAmt.add(prevAmt) > highest, \"Not high enough\");\r\n        emit AuctionBid(_contributor, _value);\r\n\r\n        if (biddingAmount[_contributor] == 0) {\r\n            biddingAddress.push(_contributor);\r\n        }\r\n        biddingAmount[_contributor] = biddingAmt.add(prevAmt);\r\n        highest = biddingAmount[_contributor];\r\n        highestAddress = _contributor;\r\n\r\n        totalBid = totalBid.add(biddingAmt);\r\n        currentBalance = currentBalance.add(biddingAmt);\r\n        return true;\r\n    }\r\n\r\n    function closeAuction() isCreator() public {\r\n        require(msg.sender == creator);\r\n        require(now >= biddingEndTime, \"Auction not time up yet!\");\r\n        require(state != State.Closed, \"Auction Closed\");\r\n        state = State.Closed;\r\n        uint i;\r\n        for (i = 0; i < biddingAddress.length; i++) {\r\n            if (biddingAddress[i] == highestAddress) {\r\n                continue;\r\n            }\r\n            uint256 withdrawAmount = biddingAmount[biddingAddress[i]];\r\n            if (withdrawAmount != 0) {\r\n                biddingAddress[i].transfer(withdrawAmount);\r\n                biddingAmount[biddingAddress[i]] = 0;\r\n            }\r\n        }\r\n        emit AuctionClosed(highestAddress, highest);\r\n    }\r\n\r\n    function withdraw() public isCreator() returns (bool) {\r\n        require(msg.sender == creator, \"Only creator can withdraw\");\r\n        require(now >= biddingEndTime, \"Auction not time up yet!\");\r\n        require(state == State.Closed, \"Auction not closed yet!\");\r\n        bidRecipient.transfer(highest.mul(100).div(95));\r\n        creator.transfer(highest.mul(100).div(5));\r\n        return true;\r\n    }\r\n\r\n    function bidCount() public view returns (uint length) {\r\n        return biddingAddress.length;\r\n    }\r\n}\r\n",
  "sourcePath": "/Users/buithanhtung/workspace/midas/tomocater/decentralized-crowd-funding/contracts/NewCaterAuction.sol",
  "compiler": {
    "name": "solc",
    "version": "0.4.24+commit.e67f0147.Emscripten.clang"
  },
  "schemaVersion": "2.0.1",
  "updatedAt": "2018-09-24T20:07:44.797Z"
}